S01300002E2E2F4645485465616D41312E7331398A
S32D0000C00000000020B9EA000011EE000011EE000011EE000011EE000011EE000000000000000000000000000054
S32D0000C0280000000011EE000011EE00000000000011EE000011EE000011EE000011EE000011EE000011EE0000F2
S32D0000C05011EE000011EE000011EE000011EE000011EE000011EE000011EE000011EE000011EE000011EE0000CC
S32D0000C07811EE000011EE000011EE000011EE000011EE000011EE000011EE000011EE000011EE000011EE0000A4
S32D0000C0A011EE000011EE000011EE000011EE000011EE000011EE000011EE000011EE000011EE000011EE00007C
S32D0000C0C811EE000011EE000011EE000011EE000011EE000011EE000011EE000011EE000011EE000011EE000054
S32D0000C0F011EE0000314E010011EE000011EE000011EE000011EE000011EE000011EE000011EE000011EE0000AB
S32D0000C11811EE000011EE000011EE000011EE000011EE000011EE000011EE000011EE000011EE000011EE000003
S32D0000C14011EE000011EE000011EE000011EE00000D26010011EE000011EE000011EE000011EE000011EE0000A6
S32D0000C16811EE000011EE000011EE000011EE000011EE000011EE000011EE000011EE000011EE000011EE0000B3
S32D0000C19011EE000011EE000011EE0000A91F0100851D01008D1E010061EE0000C520010011EE000011EE000039
S32D0000C1B811EE000011EE000011EE000011EE000011EE000011EE000011EE000011EE000011EE000011EE000063
S32D0000C41081F0004102E000BF83F0004330B54FEA41044FEA430594EA050F08BF90EA020F1FBF54EA000C55EAC6
S32D0000C438020C7FEA645C7FEA655C00F0E2804FEA5454D4EB5555B8BF6D420CDD2C4480EA020281EA030382EA0F
S32D0000C460000083EA010180EA020281EA0303362D88BF30BD11F0004F4FEA01314FF4801C4CEA113102D0404263
S32D0000C48861EB410113F0004F4FEA03334CEA133302D0524263EB430394EA050F00F0A780A4F10104D5F1200E8A
S32D0000C4B00DDB02FA0EFC22FA05F2801841F1000103FA0EF2801843FA05F359410EE0A5F120050EF1200E012A2D
S32D0000C4D803FA0EFC28BF4CF0020C43FA05F3C01851EBE37101F0004507D54FF0000EDCF1000C7EEB00006EEB67
S32D0000C5000101B1F5801F1BD3B1F5001F0CD349085FEA30004FEA3C0C04F101044FEA445212F5800F80F09A8000
S32D0000C528BCF1004F08BF5FEA500C50F1000041EB045141EA050130BD5FEA4C0C404141EB010111F4801FA4F114
S32D0000C5500104E9D191F0000F04BF01460020B1FA81F308BF2033A3F10B03B3F120020CDA0C3208DD02F1140C87
S32D0000C578C2F10C0201FA0CF021FA02F10CE002F11402D8BFC2F1200C01FA02F120FA0CFCDCBF41EA0C019040B1
S32D0000C5A0E41AA2BF01EB0451294330BD6FEA04041F3C1CDA0C340EDC04F11404C4F1200220FA04F001FA02F3B6
S32D0000C5C840EA030021FA04F345EA030130BDC4F10C04C4F1200220FA02F001FA04F340EA0300294630BD21FAA8
S32D0000C5F004F0294630BD94F0000F83F4801306BF81F480110134013D4EE77FEA645C18BF7FEA655C29D094EA1C
S32D0000C618050F08BF90EA020F05D054EA000C04BF1946104630BD91EA030F1EBF0021002030BD5FEA545C05D1A3
S32D0000C6404000494128BF41F0004130BD14F580043CBF01F5801130BD01F0004545F0FE4141F470014FF0000031
S32D0000C66830BD7FEA645C1ABF194610467FEA655C1CBF0B46024650EA013406BF52EA033591EA030F41F40021D7
S32D0000C69030BD00BF90F0000F04BF0021704730B54FF4806404F132044FF000054FF0000150E700BF90F0000F66
S32D0000C6B804BF0021704730B54FF4806404F1320410F0004548BF40424FF000013EE700BF42004FEAE2014FEAF9
S32D0000C6E031014FEA02701FBF12F07F4393F07F4F81F06051704792F0000F14BF93F07F4F704730B54FF460741B
S32D0000C70801F0004521F0004120E700BF50EA010208BF704730B54FF000050AE050EA010208BF704730B511F046
S32D0000C730004502D5404261EB41014FF4806404F132045FEA915C3FF4DCAE4FF003025FEADC0C18BF03325FEAA0
S32D0000C758DC0C18BF033202EBDC02C2F1200300FA03FC20FA02F001FA03FE40EA0E0021FA02F11444C1E600BF19
S32D0000C78070B54FF0FF0C4CF4E06C1CEA11541DBF1CEA135594EA0C0F95EA0C0F00F0DEF82C4481EA030621EAF3
S32D0000C7A84C5123EA4C5350EA013518BF52EA033541F4801143F4801338D0A0FB02CE4FF00005E1FB02E506F05F
S32D0000C7D00042E0FB03E54FF00006E1FB03569CF0000F18BF4EF0010EA4F1FF04B6F5007F64F5407404D25FEA0F
S32D0000C7F84E0E6D4146EB060642EAC62141EA55514FEAC52040EA5E504FEACE2EB4F1FD0C88BFBCF5E06F1ED8D2
S32D0000C820BEF1004F08BF5FEA500E50F1000041EB045170BD06F0004646EA010140EA020081EA0301B4EB5C0487
S32D0000C848C2BFD4EB0C0541EA045170BD41F480114FF0000E013C00F3AB8014F1360FDEBF002001F0004170BDF0
S32D0000C870C4F10004203C35DA0C341BDC04F11404C4F1200500FA05F320FA04F001FA05F240EA020001F0004207
S32D0000C89821F0004110EBD37021FA04F642EB06015EEA430E08BF20EAD37070BDC4F10C04C4F1200500FA04F32F
S32D0000C8C020FA05F001FA04F240EA020001F0004110EBD37041F100015EEA430E08BF20EAD37070BDC4F12005C7
S32D0000C8E800FA05F24EEA020E20FA04F301FA05F243EA020321FA04F001F0004121FA04F220EA020000EBD37028
S32D0000C9105EEA430E08BF20EAD37070BD94F0000F0FD101F00046400041EB010111F4801F08BF013CF7D041EA6D
S32D0000C938060195F0000F18BF704703F00046520043EB030313F4801F08BF013DF7D043EA0603704794EA0C0FF1
S32D0000C9600CEA135518BF95EA0C0F0CD050EA410618BF52EA4306D1D181EA030101F000414FF0000070BD50EA38
S32D0000C988410606BF1046194652EA430619D094EA0C0F02D150EA013613D195EA0C0F05D152EA03361CBF10467B
S32D0000C9B019460AD181EA030101F0004141F0FE4141F470014FF0000070BD41F0FE4141F4780170BD70B54FF04D
S32D0000C9D8FF0C4CF4E06C1CEA11541DBF1CEA135594EA0C0F95EA0C0F00F0A7F8A4EB050481EA030E52EA03359B
S32D0000CA004FEA013100F088804FEA03334FF0805545EA131343EA12634FEA022245EA111545EA10654FEA002676
S32D0000CA280EF000419D4208BF964244F1FD0404F5407402D25B084FEA3202B61A65EB03055B084FEA32024FF461
S32D0000CA5080104FF4002CB6EB020E75EB030E22BFB61A754640EA0C005B084FEA3202B6EB020E75EB030E22BF22
S32D0000CA78B61A754640EA5C005B084FEA3202B6EB020E75EB030E22BFB61A754640EA9C005B084FEA3202B6EBEA
S32D0000CAA0020E75EB030E22BFB61A754640EADC0055EA060E18D04FEA051545EA16754FEA06164FEAC30343EAAC
S32D0000CAC852734FEAC2025FEA1C1CC0D111F4801F0BD141EA00014FF000004FF0004CB6E711F4801F04BF0143AE
S32D0000CAF00020B4F1FD0C88BFBCF5E06F3FF6AFAEB5EB030C04BFB6EB020C5FEA500C50F1000041EB045170BDBC
S32D0000CB180EF0004E4EEA113114EB5C04C2BFD4EB0C0541EA045170BD41F480114FF0000E013C90E645EA060EC3
S32D0000CB408DE60CEA135594EA0C0F08BF95EA0C0F3FF43BAF94EA0C0F0AD150EA01347FF434AF95EA0C0F7FF499
S32D0000CB6825AF104619462CE795EA0C0F06D152EA03353FF4FDAE1046194622E750EA410618BF52EA43067FF432
S32D0000CB90C5AE50EA41047FF40DAF52EA43057FF4EBAE12E74FF0FF3C06E000BF4FF0010C02E000BF4FF0010C75
S32D0000CBB84DF804CD4FEA410C7FEA6C5C4FEA430C18BF7FEA6C5C1BD001B050EA410C0CBF52EA430C91EA030FEC
S32D0000CBE002BF90EA020F0020704710F1000F91EA030F58BF994208BF90422CBFD8176FEAE37040F0010070476E
S32D0000CC084FEA410C7FEA6C5C02D150EA013C07D14FEA430C7FEA6C5CD6D152EA033CD3D05DF8040B704700BFCD
S32D0000CC308446104662468C461946634600E000BF01B5FFF7B7FF002848BF10F1000F01BD4DF808EDFFF7F4FF13
S32D0000CC580CBF012000205DF808FB00BF4DF808EDFFF7EAFF34BF012000205DF808FB00BF4DF808EDFFF7E0FF18
S32D0000CC8094BF012000205DF808FB00BF4DF808EDFFF7CEFF94BF012000205DF808FB00BF4DF808EDFFF7C4FF40
S32D0000CCA834BF012000205DF808FB00BF4FEA410212F5001215D211D56FF47873B3EB625212D94FEAC12343F0D6
S32D0000CCD0004343EA505311F0004F23FA02F018BF404270474FF00000704750EA013005D111F0004008BF6FF016
S32D0000CCF8004070474FF00000704700BF4A0011D212F5001211D20DD56FF47873B3EB62520ED44FEAC12343F085
S32D0000CD20004343EA505323FA02F070474FF00000704750EA013002D14FF0FF3070474FF0000070474FEA410241
S32D0000CD48B2F1E04324BFB3F5001CDCF1FE5C0DD901F0004C4FEAC0024CEA5070B2F1004F40EB830008BF20F09E
S32D0000CD700100704711F0804F21D113F13872BCBF01F00040704741F480114FEA5252C2F11802C2F1200C10FAB1
S32D0000CD980CF320FA02F018BF40F001004FEAC1234FEAD32303FA0CFC40EA0C0023FA02F34FEA4303CCE77FEA26
S32D0000CDC0625307D150EA01331EBF4FF0FE4040F44000704701F0004040F0FE4040F40000704700BF80F00040CC
S32D0000CDE802E000BF81F0004142001FBF5FEA410392EA030F7FEA226C7FEA236C6AD04FEA1262D2EB1363C1BF06
S32D0000CE10D218414048404140B8BF5B42192B88BF704710F0004F40F4000020F07F4018BF404211F0004F41F4FA
S32D0000CE38000121F07F4118BF494292EA030F3FD0A2F1010241FA03FC10EB0C00C3F1200301FA03F100F000432B
S32D0000CE6002D5494260EB4000B0F5000F13D3B0F1807F06D340084FEA310102F10102FE2A51D2B1F1004F40EB94
S32D0000CE88C25008BF20F0010040EA03007047490040EB000010F4000FA2F10102EDD1B0FA80FCACF1080CB2EB5F
S32D0000CEB00C0200FA0CF0AABF00EBC25052421843BCBFD0401843704792F0000F81F4000106BF80F400000132EB
S32D0000CED8013BB5E74FEA41037FEA226C18BF7FEA236C21D092EA030F04D092F0000F08BF0846704790EA010FD7
S32D0000CF001CBF0020704712F07F4F04D1400028BF40F00040704712F100723CBF00F50000704700F0004343F0DC
S32D0000CF28FE4040F4000070477FEA226216BF08467FEA23630146420206BF5FEA412390EA010F40F480007047C1
S32D0000CF504FF0000304E000BF10F0004348BF40425FEA000C08BF704743F0964301464FF000001CE050EA010264
S32D0000CF7808BF70474FF000030AE000BF50EA010208BF704711F0004302D5404261EB41015FEA010C02BF84465B
S32D0000CFA00146002043F0B64308BFA3F18053A3F50003BCFA8CF2083AA3EBC25310DB01FA02FC634400FA02FC6B
S32D0000CFC8C2F12002BCF1004F20FA02F243EB020008BF20F00100704702F1200201FA02FCC2F1200250EA4C0034
S32D0000CFF021FA02F243EB020008BF20EADC7070474FF0FF0C1CEAD0521EBF1CEAD15392EA0C0F93EA0C0F6FD019
S32D0000D0181A4480EA010C400218BF5FEA41211ED04FF0006343EA501043EA5111A0FB01310CF00040B1F5000FE7
S32D0000D0403EBF490041EAD3715B0040EA010062F17F02FD2A1DD8B3F1004F40EBC25008BF20F00100704790F058
S32D0000D068000F0CF0004C08BF49024CEA502040EA51207F3AC2BFD2F1FF0340EAC250704740F400004FF0000388
S32D0000D090013A5DDC12F1190FDCBF00F000407047C2F10002410021FA02F1C2F1200200FA02FC5FEA310040F1D5
S32D0000D0B8000053EA4C0308BF20EADC70704792F0000F00F0004C02BF400010F4000F013AF9D040EA0C0093F04C
S32D0000D0E0000F01F0004C02BF490011F4000F013BF9D041EA0C018FE70CEAD15392EA0C0F18BF93EA0C0F0AD00B
S32D0000D10830F0004C18BF31F0004CD8D180EA010000F00040704790F0000F17BF90F0004F084691F0000F91F0BB
S32D0000D130004F14D092EA0C0F01D142020FD193EA0C0F03D14B0218BF084608D180EA010000F0004040F0FE4051
S32D0000D15840F40000704740F0FE4040F4400070474FF0FF0C1CEAD0521EBF1CEAD15392EA0C0F93EA0C0F69D044
S32D0000D180A2EB030280EA010C49024FEA402037D04FF0805343EA111143EA10130CF000408B4238BF5B0042F14E
S32D0000D1A87D024FF4000C8B4224BF5B1A40EA0C00B3EB510F24BFA3EB510340EA5C00B3EB910F24BFA3EB9103A4
S32D0000D1D040EA9C00B3EBD10F24BFA3EBD10340EADC001B0118BF5FEA1C1CE0D1FD2A3FF650AF8B4240EBC25018
S32D0000D1F808BF20F0010070470CF0004C4CEA50207F32C2BFD2F1FF0340EAC250704740F400004FF00003013AF1
S32D0000D22037E792F0000F00F0004C02BF400010F4000F013AF9D040EA0C0093F0000F01F0004C02BF490011F4C9
S32D0000D248000F013BF9D041EA0C0195E70CEAD15392EA0C0F08D142027FF47DAF93EA0C0F7FF470AF084676E7AE
S32D0000D27093EA0C0F04D14B023FF44CAF08466EE730F0004C18BF31F0004CCAD130F000427FF45CAF31F0004376
S32D0000D2987FF43CAF5FE700BF4FF0FF3C06E000BF4FF0010C02E000BF4FF0010C4DF804CD4FEA40024FEA41039F
S32D0000D2C07FEA226C18BF7FEA236C11D001B052EA530C18BF90EA010F58BFB2EB030088BFC81738BF6FEAE1706E
S32D0000D2E818BF40F0010070477FEA226C02D15FEA402C05D17FEA236CE4D15FEA412CE1D05DF8040B704700BF16
S32D0000D310844608466146FFE70FB5FFF7C9FF002848BF10F1000F0FBD4DF808EDFFF7F4FF0CBF012000205DF839
S32D0000D33808FB00BF4DF808EDFFF7EAFF34BF012000205DF808FB00BF4DF808EDFFF7E0FF94BF012000205DF8A9
S32D0000D36008FB00BF4DF808EDFFF7D2FF94BF012000205DF808FB00BF4DF808EDFFF7C8FF34BF012000205DF8B1
S32D0000D38808FB00BF4FEA4002B2F1FE4F0FD34FF09E03B3EB12620DD94FEA002343F0004310F0004F23FA02F060
S32D0000D3B018BF404270474FF00000704712F1610F01D1420205D110F0004008BF6FF0004070474FF00000704797
S32D0000D3D880B483B000AF78607B6823F00043184607F10C07BD4680BC704700BF80B483B000AFC7E900013A6879
S32D0000D400796821F000431046194607F10C07BD4680BC704790B583B000AF786039604FF001031C467868396855
S32D0000D428FFF7A6FF0346002B02D14FF000031C46E3B2002B01D03B6800E07B68184607F10C07BD4690BD00BFE1
S32D0000D45090B583B000AF78604FF001031C4678684149FFF789FF0346002B02D14FF000031C46E3B2002B28D07F
S32D0000D47878683C49FFF7C0FD03461846FFF728F902460B46104619462FA3D3E90023FEF7C1FF02460B4610460D
S32D0000D4A019462DA3D3E90023FFF794FA02460B4610461946FFF746FC034640F2E450C1F6FF70194601F0A8FD7C
S32D0000D4C83EE04FF001031C4678682549FFF732FF0346002B02D14FF000031C46E3B2002B28D078681F49FFF71D
S32D0000D4F087FD03461846FFF7EFF802460B461046194617A3D3E90023FEF788FF02460B461046194610A3D3E9E6
S32D0000D5180023FFF75BFA02460B4610461946FFF70DFC034640F2E450C1F6FF70194601F06FFD05E040F2E4504E
S32D0000D540C1F6FF7001F018FD07F10C07BD4690BDFDF675E09CF12240CDCCCCCCCCCC04406C09F9A06793214089
S32D0000D568000000000000804090B583B000AF78604FF001031C4678684149FFF7F9FE0346002B02D14FF0000351
S32D0000D5901C46E3B2002B28D078683C49FFF730FD03461846FFF798F802460B46104619462FA3D3E90023FEF7AA
S32D0000D5B831FF02460B46104619462DA3D3E90023FFF704FA02460B4610461946FFF7B6FB034640F2EC50C1F6C1
S32D0000D5E0FF70194601F018FD3EE04FF001031C4678682549FFF7A2FE0346002B02D14FF000031C46E3B2002BF7
S32D0000D60828D078681F49FFF7F7FC03461846FFF75FF802460B461046194617A3D3E90023FEF7F8FE02460B466C
S32D0000D6301046194610A3D3E90023FFF7CBF902460B4610461946FFF77DFB034640F2EC50C1F6FF70194601F0E2
S32D0000D658DFFC05E040F2EC50C1F6FF7001F088FC07F10C07BD4690BD23DBF97E6ABC2C40CDCCCCCCCCCC04406C
S32D0000D6800AD7A3703D4A2B40000000000000804090B583B000AF78604FF001031C4678684149FFF769FE034622
S32D0000D6A8002B02D14FF000031C46E3B2002B28D078683C49FFF7A0FC03461846FFF708F802460B461046194618
S32D0000D6D02FA3D3E90023FEF7A1FE02460B46104619462DA3D3E90023FFF774F902460B4610461946FFF726FB22
S32D0000D6F8034640F2F450C1F6FF70194601F088FC3EE04FF001031C4678682549FFF712FE0346002B02D14FF0AE
S32D0000D72000031C46E3B2002B28D078681F49FFF767FC03461846FEF7CFFF02460B461046194617A3D3E90023CC
S32D0000D748FEF768FE02460B461046194610A3D3E90023FFF73BF902460B4610461946FFF7EDFA034640F2F45064
S32D0000D770C1F6FF70194601F04FFC05E040F2F450C1F6FF7001F0F8FB07F10C07BD4690BD60E5D022DB392C4053
S32D0000D7983333333333330540FED478E926B12840000000000000804090B583B000AF78604FF001031C46786836
S32D0000D7C04149FFF7D9FD0346002B02D14FF000031C46E3B2002B28D078683C49FFF710FC03461846FEF778FFC8
S32D0000D7E802460B46104619462FA3D3E90023FEF711FE02460B46104619462DA3D3E90023FFF7E4F802460B46A8
S32D0000D81010461946FFF796FA034640F2FC50C1F6FF70194601F0F8FB3EE04FF001031C4678682549FFF782FDF9
S32D0000D8380346002B02D14FF000031C46E3B2002B28D078681F49FFF7D7FB03461846FEF73FFF02460B46104646
S32D0000D860194617A3D3E90023FEF7D8FD02460B461046194610A3D3E90023FFF7ABF802460B4610461946FFF71B
S32D0000D8885DFA034640F2FC50C1F6FF70194601F0BFFB05E040F2FC50C1F6FF7001F068FB07F10C07BD4690BDEC
S32D0000D8B0E5D022DBF9FE24403D0AD7A3703D044094F6065F986C2240000000000000804090B589B000AF40F217
S32D0000D8D80460C1F6FF7040F2BB4105F0BFF840F20460C1F6FF7040F6241105F0D5F800F05BF98B4BFB614FF020
S32D0000D9000003BB614FF000037B614FF000033B614FF00003FB604FF00103BB60824B7B6040F60020C1F6FF70BF
S32D0000D92807F010FA03464FF00102144618467D49FFF700FD0346002B02D14FF000031C46E3B2002B2AD040F6F9
S32D0000D950B410C1F6FF7047F26C61C0F201014FF000024FF0000305F09FFE40F60020C1F6FF7007F0EBF9034650
S32D0000D97840F6B410C1F6FF7019464FF000024FF0280305F0B9FE4FF00003BDE040F21060C1F6FF7004F074FCA0
S32D0000D9A00346FB61F869FEF797FE02460B464FF001010C461046194659A3D3E90023FFF76FF90346002B02D168
S32D0000D9C84FF000031C46E3B2002BDFD156485749574A00F0F5F84FF4FA7003F0E5FE55485549534A00F0ECF832
S32D0000D9F04FF4FA7003F0DCFE4D4852494E4A00F0E3F84FF4FA7003F0D3FE4F484F494A4A00F0DAF84FF4FA7059
S32D0000DA1803F0CAFE4C484D49454A00F0D1F84FF4FA7003F0C1FE46484649414A00F0C8F84FF4FA7003F0B8FEA6
S32D0000DA4000F09EF83D4844493B4A00F0BDF84FF0C80003F0ADFE00F09FF84FF0C80003F0A7FE39483D49344AA6
S32D0000DA6800F0AEF838483A49314A00F0A9F800F09BF84FF4FA7003F097FE2E4836492C4A00F09EF84FF4FA7095
S32D0000DA9003F08EFE264800F0DFFE25482F49264A00F092F84FF4FA7003F082FE2D4800F0A3FC4FF4FA7003F01B
S32D0000DAB87BFE2B4800F030FE4FF4FA7003F074FE28481E491A4A00F07BF84FF4FA7003F06BFE18481349164A61
S32D0000DAE000F072F800F04CF84FF47A7003F060FE15481F49104A00F067F84FF4FA7003F057FE1C481C490C4A8A
S32D0000DB0800F05EF84FF00003184607F12407BD4690BD00BFAFF300809A9999999999054033335340000030416F
S32D0000DB300000B4420000584100007042000000000000104100009041000034430000A0400000874300002841DA
S32D0000DB580000B0400000803F00004040000096420000344200008C430000E0400000824300008841AFF3008083
S32D0000DB8080B500AF40F20460C1F6FF70014904F0A7FF80BD0000DC4280B500AF40F20460C1F6FF70014904F0BA
S32D0000DBA89BFF80BD00005C4280B500AF40F20460C1F6FF70014904F08FFF80BD00000000B0B59AB000AFF8607B
S32D0000DBD0B9607A6040F21860C1F6FF7004F02EFB40F21460C1F6FF7004F028FB40F21C60C1F6FF7004F022FB7F
S32D0000DBF840F22060C1F6FF7004F01CFBF868AE49FFF7F2F80346FB60B868AC49FFF7F4F903461846AA49FFF7B9
S32D0000DC20A3FA0346BB607868A849FFF79DFA03467B60F868FEF750FD02460B46104619469BA3D3E90023FEF751
S32D0000DC489BFD02460B461046194699A3D3E90023FEF7BCFE02460B461046194607F01AFB04460D467868FEF732
S32D0000DC7033FD02460B4620462946FEF781FD02460B4610461946FFF75DF803467B65F868FEF722FD02460B46A6
S32D0000DC981046194684A3D3E90023FEF76DFD02460B461046194682A3D3E90023FEF78EFE02460B461046194623
S32D0000DCC007F036FB04460D467868FEF705FD02460B4620462946FEF753FD02460B4610461946FFF72FF8034633
S32D0000DCE83B65794B7B66784B3B66774BFB65764BBB65F868FEF7ECFC02460B461046194669A3D3E90023FEF7F7
S32D0000DD1037FD02460B461046194667A3D3E90023FEF758FE02460B461046194607F0B6FA04460D46B868FEF788
S32D0000DD38CFFC02460B4620462946FEF71DFD02460B4610461946FEF7F9FF0346FB64F868FEF7BEFC02460B46EA
S32D0000DD601046194652A3D3E90023FEF709FD02460B461046194650A3D3E90023FEF72AFE02460B461046194686
S32D0000DD8807F0D2FA04460D46B868FEF7A1FC02460B4620462946FEF7EFFC02460B4610461946FEF7CBFF0346B7
S32D0000DDB0BB64484B7B644FF0000387F843303B6D83F000431846FFF7D3FB3B6D83F000431846FFF75DFC7B6D0D
S32D0000DDD883F000431846FFF737FB7B6D83F000431846FFF7E1FC03F027FD02460B46C7E90E239CE2786DFEF729
S32D0000DE006BFC04460D4603F01BFD02460B4610461946D7E90E23FEF7FFFA02460B4620462946FEF7ADFC024664
S32D0000DE280B4610461946FEF789FF03467B63386DFEF74EFC04460D4603F0FEFC02460B4610461946D7E90E2375
S32D0000DE50FEF7E2FA02460B4620462946FEF790FC02460B4610461946FEF76CFF03463B6340F21460C1F6FF7083
S32D0000DE7804F0C2F90346002B32D04FF001031C46786D1149FFF774FA0346002B02D14FF000031C46E3B2002B64
S32D0000DEA01CD0786E0C49FEF7A3FF03467B661BE0E0864454FB2109400000000000806640000034420000FA4335
S32D0000DEC80000A2420000004000000000000040400000803F786EA649FEF784FF03467B66786EFFF775FA0546BC
S32D0000DEF0F86CFFF771FA03464FF00102144628461946FFF72FFA0346002B02D14FF000031C46E3B2002B06D0ED
S32D0000DF1840F2E450C1F6FF7001F02AF84AE0786B796EFEF75FFF0346FB62F86CFFF750FA0446786EFFF74CFA3F
S32D0000DF40034620461946FEF751FF03461846FEF7C3FB02460B461046194683A3D3E90023FEF70EFC02460B461B
S32D0000DF681046194680A3D3E90023FEF753FA02460B4610461946FEF7E1FE03467C481946FFF744FA0346BB626A
S32D0000DF907B6D83F000431846B96AFFF731F803461C46786CF96AFFF72BF8034620461946FEF71CFF0346184655
S32D0000DFB8FFF74AFA40F21860C1F6FF7004F01CF90346002B1CD04FF001031C46386D6949FFF7CEF90346002B9B
S32D0000DFE002D14FF000031C46E3B2002B06D0386E6149FEF7FDFE03463B6605E0386E5E49FEF7F4FE03463B66D9
S32D0000E008386EFFF7E5F90546B86CFFF7E1F903464FF00102144628461946FFF79FF90346002B02D14FF0000368
S32D0000E0301C46E3B2002B06D040F2EC50C1F6FF7000F09AFF4AE0386B396EFEF7CFFE03467B62B86CFFF7C0F97E
S32D0000E0580446386EFFF7BCF9034620461946FEF7C1FE03461846FEF733FB02460B46104619463BA3D3E9002368
S32D0000E080FEF77EFB02460B461046194638A3D3E90023FEF7C3F902460B4610461946FEF751FE03463448194695
S32D0000E0A8FFF7B4F903463B623B6D83F000431846396AFEF7A1FF03461C46786C796AFEF79BFF034620461946BE
S32D0000E0D0FEF78CFE03461846FFF74AFA40F21C60C1F6FF7004F08CF80346002B1CD04FF001031C46386D214962
S32D0000E0F8FFF73EF90346002B02D14FF000031C46E3B2002B06D0F86D1949FEF76DFE0346FB6505E0F86D1649D3
S32D0000E120FEF764FE0346FB65F86DFFF755F90546B86CFFF751F903464FF00102144628461946FFF70FF9034680
S32D0000E148002B02D14FF000031C46E3B2002B13D040F2F450C1F6FF7000F00AFF57E000BF7B14AE47E17AB43F07
S32D0000E1709A9999999999C93F0000803F00000000386BF96DFEF732FE0346FB61B86CFFF723F90446F86DFFF775
S32D0000E1981FF9034620461946FEF724FE03461846FEF796FA02460B46104619468AA3D3E90023FEF7E1FA02467E
S32D0000E1C00B461046194688A3D3E90023FEF726F902460B4610461946FEF7B4FD034684481946FFF717F9034656
S32D0000E1E8BB613B6D83F000431846B969FEF704FF03461C46786CF969FEF7FEFE034620461946FEF7EFFD0346FD
S32D0000E2101846FFF73DFA40F22060C1F6FF7003F0EFFF0346002B1CD04FF001031C46786D7049FFF7A1F8034621
S32D0000E238002B02D14FF000031C46E3B2002B06D0B86D6949FEF7D0FD0346BB6505E0B86D6549FEF7C7FD0346C4
S32D0000E260BB65B86DFFF7B8F80546F86CFFF7B4F803464FF00102144628461946FFF772F80346002B02D14FF0BC
S32D0000E28800031C46E3B2002B06D040F2FC50C1F6FF7000F06DFE4AE0786BB96DFEF7A2FD03467B61F86CFFF728
S32D0000E2B093F80446B86DFFF78FF8034620461946FEF794FD03461846FEF706FA02460B461046194642A3D3E9AA
S32D0000E2D80023FEF751FA02460B461046194640A3D3E90023FEF796F802460B4610461946FEF724FD03463C48F1
S32D0000E3001946FFF787F803463B617B6D83F0004318463969FEF774FE03461C46786C7969FEF76EFE03462046B0
S32D0000E3281946FEF75FFD03461846FFF73DFAF86DFFF74EF80546B86CFFF74AF803464FF0010214462846194649
S32D0000E350FEF7F4FF0346002B02D14FF000031C46E3B2002B17D1B86DFFF736F80546F86CFFF732F803464FF084
S32D0000E3780102144628461946FEF7DCFF0346002B02D14FF000031C46E3B2002B02D04FF0010301E04FF000039A
S32D0000E3A0002B7FF42BAD40F2E450C1F6FF7000F0E3FD40F2EC50C1F6FF7000F0DDFD40F2F450C1F6FF7000F093
S32D0000E3C8D7FD40F2FC50C1F6FF7000F0D1FD07F16807BD46B0BD00BF7B14AE47E17AB43F9A9999999999C93FEA
S32D0000E3F00000803F00000000B0B586B000AF786078682949FEF7B0FE03467B607868FEF763F902460B461046E5
S32D0000E41819461FA3D3E90023FEF7AEF902460B4610461946FEF78AFC03463B617868FEF74FF902460B46104680
S32D0000E440194617A3D3E90023FEF79AF902460B4610461946FEF776FC0346FB60FB6883F000431846FFF784F8EC
S32D0000E468FB6883F000431846FFF70EF93B6983F000431846FEF7E8FF3B6983F000431846FFF792F94FF0000303
S32D0000E490FB7507E1AFF3008050FC7E669EA0E63F497B7F669EA0E63F0000004040F6FC10C1F6FF7006F0ECFBC0
S32D0000E4B802460B4610461946FEF798FF02460B464FF001010C46104619468FA3D3E90023FEF7E2FB0346002B24
S32D0000E4E002D14FF000031C46E3B2002B02D04FF00103FB75FB6883F000431846FEF7ECF804460D4640F6FC1023
S32D0000E508C1F6FF7006F0C0FB02460B4610461946FEF76CFF02460B4610461946FDF77AFF02460B461046194657
S32D0000E5304FF000024FF07E5303F5E003FDF76EFF02460B4620462946FEF71AF902460B4610461946FEF7F6FB86
S32D0000E55803461846FFF708F8FB6883F000431846FEF7B6F804460D4640F6FC10C1F6FF7006F08AFB02460B46C5
S32D0000E58010461946FEF736FF02460B4610461946FDF744FF02460B46104619464FF000024FF07E5303F5E0038F
S32D0000E5A8FDF738FF02460B4620462946FEF7E4F802460B4610461946FEF7C0FB03461846FFF762F83B6983F0CF
S32D0000E5D000431846FEF780F804460D4640F6FC10C1F6FF7006F054FB02460B4610461946FEF700FF02460B46EA
S32D0000E5F810461946FDF70EFF02460B46104619464FF000024FF07E5303F5E003FDF702FF02460B462046294662
S32D0000E620FEF7AEF802460B4610461946FEF78AFB03461846FEF70CFF3B6983F000431846FEF74AF804460D4636
S32D0000E64840F6FC10C1F6FF7006F01EFB02460B4610461946FEF7CAFE02460B4610461946FDF7D8FE02460B4671
S32D0000E670104619464FF000024FF07E5303F5E003FDF7CCFE02460B4620462946FEF778F802460B4610461946BC
S32D0000E698FEF754FB03461846FFF786F8FB7D83F00103DBB2002B20D140F6FC10C1F6FF7006F0EAFA02460B4682
S32D0000E6C010461946FEF796FE02460B464FF001010C461046194610A3D3E90023FEF7E0FA0346002B02D14FF026
S32D0000E6E800031C46E3B2002B02D04FF0010301E04FF00003002B7FF4D5AE07F11807BD46B0BD00BFAFF300801E
S32D0000E7109A9999999999B93FEC51B81E85EBB13F90B585B000AF78607868FDF7D5FF02460B461046194644A3FB
S32D0000E738D3E90023FEF74AF902460B4610461946FEF7B4FA0346FB6040F21860C1F6FF7003F070FD40F2146031
S32D0000E760C1F6FF7003F06AFD40F21C60C1F6FF7003F064FD40F22060C1F6FF7003F05EFD40F2E450C1F6FF7031
S32D0000E788314900F045FC40F2EC50C1F6FF702F4900F03EFC40F2FC50C1F6FF702B4900F037FC40F2F450C1F61A
S32D0000E7B0FF70274900F030FC00BF40F21460C1F6FF7003F009FD044640F21860C1F6FF7003F002FD0346E4186B
S32D0000E7D840F21C60C1F6FF7003F0FAFC0346E41840F22060C1F6FF7003F0F2FC0346E218FB684FEA83039A4217
S32D0000E800ACBF00230123DBB2002BD6D140F2E450C1F6FF7000F0B0FB40F2EC50C1F6FF7000F0AAFB40F2F45013
S32D0000E828C1F6FF7000F0A4FB40F2FC50C1F6FF7000F09EFB07F11407BD4690BDAFF30080CDCCCCCCCCCC004052
S32D0000E85000004842000048C290B585B000AF78607868FDF739FF02460B461046194644A3D3E90023FEF7AEF84A
S32D0000E87802460B4610461946FEF718FA0346FB6040F21860C1F6FF7003F0D4FC40F21460C1F6FF7003F0CEFC5D
S32D0000E8A040F21C60C1F6FF7003F0C8FC40F22060C1F6FF7003F0C2FC40F2E450C1F6FF70314900F0A9FB40F26A
S32D0000E8C8EC50C1F6FF702F4900F0A2FB40F2FC50C1F6FF702B4900F09BFB40F2F450C1F6FF70274900F094FB92
S32D0000E8F000BF40F21460C1F6FF7003F06DFC044640F21860C1F6FF7003F066FC0346E41840F21C60C1F6FF708B
S32D0000E91803F05EFC0346E41840F22060C1F6FF7003F056FC0346E218FB684FEA83039A42ACBF00230123DBB2A2
S32D0000E940002BD6D140F2E450C1F6FF7000F014FB40F2EC50C1F6FF7000F00EFB40F2F450C1F6FF7000F008FB30
S32D0000E96840F2FC50C1F6FF7000F002FB07F11407BD4690BDAFF30080CDCCCCCCCCCC0040000048C200004842CE
S32D0000E99080B582B000AF786039607B68012B60D13A684FF6FF739A425BD140F2E450C1F6FF704FF000012D4AEE
S32D0000E9B800F086FA40F2EC50C1F6FF704FF00101284A00F07DFA40F2F450C1F6FF704FF00201244A00F074FA69
S32D0000E9E040F2FC50C1F6FF704FF003011F4A00F06BFA40F20460C1F6FF704FF0000104F013F840F21060C1F610
S32D0000EA08FF704FF0000103F029FC40F21460C1F6FF704FF010014FF00B0203F065F840F21860C1F6FF704FF052
S32D0000EA3012014FF00B0203F05BF840F21C60C1F6FF704FF014014FF00B0203F051F840F22060C1F6FF704FF04C
S32D0000EA5816014FF00B0203F047F807F10807BD4680BD00BF0000A04080B500AF4FF001004FF6FF71FFF788FFBF
S32D0000EA8080BD00BF80B500AF40F68042C1F6FF7240F2E453C1F6FF73D31A194640F2E453C1F6FF731A460B4647
S32D0000EAA810464FF000011A4607F05DFD80BD00BF08F0C6FD00F0AEF9FFF7E0FF08F098FD08F034FD08F0CCFD5F
S32D0000EAD000F00CF84FF0000040F22461C1F6FF71FEF7F6FE0346184607F01CFD80B500AF4FF4E043C4F2040360
S32D0000EAF84FF4E042C4F2040202F5805202F13802126842F4785203F5805303F138031A6000F02CF900F092F85C
S32D0000EB2040F65403C1F6FF734FF058021A6040F65403C1F6FF731B684FF47A7202FB03F240F65003C1F6FF73F2
S32D0000EB481A6040F65003C1F6FF731B681A464FF4E043C4F2040303F5825303F104031B6803F070634FEA1363AD
S32D0000EB7003F10103B2FBF3F31A4640F65803C1F6FF731A604FF4E043C4F204034FF4E042C4F2040202F580524B
S32D0000EB9802F13C02126842F0225203F5805303F13C031A604FF4E043C4F204034FF4E042C4F2040202F5805279
S32D0000EBC002F13002126842F0006203F5805303F130031A604FF45043C4F203034FF480721A614FF0640002F0B1
S32D0000EBE877FC4FF45043C4F203034FF45042C4F20302526922F010025A614FF45043C4F203034FF000021A6083
S32D0000EC104FF45043C4F203034FF010025A6103F065FC03F00DFD40F64C00C1F6FF7002F0D7FC40F6B410C1F6C9
S32D0000EC38FF7004F007FB02F059FE80BD80B400AF4FF48043C4F206034FF000025A704FF48043C4F206034FF00C
S32D0000EC6098021A704FF48043C4F206039B79DBB203F01003002B0CBF00230123DBB2002BF0D14FF48043C4F284
S32D0000EC8806039B79DBB203F00C034FEA9303022B0CBF00230123DBB2002BEED14FF48043C4F206034FF018020F
S32D0000ECB01A714FF48043C4F206034FF000025A714FF4E043C4F2040303F5825303F104034FF00002C0F21312D7
S32D0000ECD81A604FF48043C4F206034FF054025A7100BF4FF48043C4F206039B79DBB203F02003002B14BF002313
S32D0000ED000123DBB2002BF0D100BF4FF48043C4F206039B79DBB203F04003002B14BF00230123DBB2002BF0D12F
S32D0000ED284FF48043C4F206034FF48042C4F206021278D2B202F03F02D2B21A704FF48043C4F206039B79DBB280
S32D0000ED5003F00C034FEA9303032B0CBF00230123DBB2002BEED14FF000031846BD4680BC704700BF80B400AFD5
S32D0000ED784FF44043C4F204034FF480725A634FF2C003C4F20F034FF2C002C4F20F02526942F400525A614FF223
S32D0000EDA0C003C4F20F034FF2C002C4F20F02126842F400521A604FF44043C4F2040340F20312C0F20A021A636F
S32D0000EDC84FF46143CEF200034FF46142CEF20002D2F8882142F08062C3F888214FF46143CEF200034FF4614250
S32D0000EDF0CEF20002926842F080629A60BD4680BC704700BF80B483B000AF7860FEE700BF80B400AF00BEBD4640
S32D0000EE1880BC704780B400AF4FF0E0224CF20003C0F20003C2F8083D4FF40053C4F205034CF22052DA814FF41E
S32D0000EE400053C4F205034DF62812DA814FF40053C4F205034FF0D2021A80BD4680BC704780B500AF4FF440431A
S32D0000EE68C4F20403D3F8A03003F48053002B0CBF00230123DBB2002B1FD04FF44043C4F204034FF44042C4F278
S32D0000EE900402D2F8A02022F48052C3F8A02040F63C20C1F6FF7006F0BBF94FF2C003C4F20F034FF2C002C4F27A
S32D0000EEB80F02126822F400521A6080BD0000000090B585B000AFF8600B467A60FB72FB68FA7A1A71FB684FF065
S32D0000EEE000025A714FF001031C4678682049FEF743FA0346002B02D14FF000031C46E3B2002B02D01A4B7B605A
S32D0000EF0811E04FF001031C4678681849FEF71CFA0346002B02D14FF000031C46E3B2002B01D0124B7B60786865
S32D0000EF30FDF7D2FB02460B46104619460AA3D3E90023FDF71DFC02460B4610461946FDF7F9FE0246FB681A60AD
S32D0000EF58FB68184607F11407BD4690BDAFF30080ABAAAAAAAAAA2040000040410000803F80B582B000AF7860BA
S32D0000EF807B685B79002B10D07B684FF000025A717B681B7940F64C00C1F6FF7019464FF000024FF01E0302F0A1
S32D0000EFA865FB07F10807BD4680BD00BF80B584B000AF786039603B687F2B03DD4FF07F03FB7309E03B6813F160
S32D0000EFD0800F03DA4FF08003FB7301E03B68FB737B685B79FA7B9A420FD07B68FA7B5A717B681A79FB7B40F659
S32D0000EFF84C00C1F6FF7011461A464FF01E0302F035FB07F11007BD4680BD00BF00000000B0B584B000AF786012
S32D0000F02039604FF001031C4638684D49FEF786F90346002B02D14FF000031C46E3B2002B02D0474B3B6011E03F
S32D0000F0484FF001031C4638684449FEF791F90346002B02D14FF000031C46E3B2002B01D03E4B3B603868FDF715
S32D0000F07033FB04460D467B681B681846FDF72CFB02460B46104619464FF000024FF0804303F5B203FDF79EFCFC
S32D0000F09802460B4620462946FDF76EFB02460B4610461946FDF74AFE03463B604FF001031C4638682A49FEF764
S32D0000F0C051F90346002B02D14FF000031C46E3B2002B14D03868FDF7FFFA02460B46104619461DA3D3E90023CF
S32D0000F0E8FDF74AFB02460B4610461946FDF7DEFD0346FB6022E03868FDF7EAFA02460B46104619464FF00002F7
S32D0000F1104FF0804303F5C003FDF732FB02460B46104619464FF000024FF0804303F5B203FDF750FC02460B46DC
S32D0000F13810461946FDF7BAFD0346FB607868F968FFF734FF07F11007BD46B0BDAFF3008052B81E85EB51F43F7E
S32D0000F1600000C8C20000C84200000000AFF3008080B485B000AF02460B46FA71BB71BB79002B07D140F228638F
S32D0000F188C1F6FF734FF000021A7006E040F22863C1F6FF734FF001021A704FF03803FB7340F22863C1F6FF73FF
S32D0000F1B01A78FB7B1343FB734FF4C043C4F206034FF4C042C4F206029278D2B242F01002D2B29A704FF4C043B7
S32D0000F1D8C4F206034FF4C042C4F206029278D2B242F02002D2B29A704FF4C043C4F20603FA7B1A7107F11407BF
S32D0000F200BD4680BC704700BF80B483B000AF4FF001037B6004E000BF7B6803F101037B607B68312BCCBF0023B1
S32D0000F2280123DBB2002BF2D107F10C07BD4680BC704700BF80B584B000AF0346FB7140F22963C1F6FF731B7812
S32D0000F25018464FF00001FFF78BFF4FF4C043C4F20603DB78DBB203F00203002B14BF00230123DBB2002BF0D1D7
S32D0000F2784FF4C043C4F206034FF4C042C4F20602D278D2B242F00202D2B2DA704FF4C043C4F20603FA791A718B
S32D0000F2A04FF4C043C4F20603DB78DBB203F00203002B14BF00230123DBB2002BF0D14FF4C043C4F206034FF45D
S32D0000F2C8C042C4F20602D278D2B242F00202D2B2DA704FF4C043C4F206034FF4C042C4F206029278D2B242F0BE
S32D0000F2F00402D2B29A704FF4C043C4F206034FF039021A714FF4C043C4F20603DB78DBB203F00203002B14BF77
S32D0000F31800230123DBB2002BF0D14FF4C043C4F206034FF4C042C4F20602D278D2B242F00202D2B2DA704FF4EA
S32D0000F340C043C4F206034FF4C042C4F206029278D2B222F01002D2B29A704FF4C043C4F206034FF4C042C4F29A
S32D0000F36806029278D2B242F00802D2B29A704FF4C043C4F206031B79FB724FF00003FB6003E0FB6803F1010336
S32D0000F390FB60FA6841F287339A428CBF00230123DBB2002BF1D14FF4C043C4F20603DB78DBB203F00203002BB5
S32D0000F3B814BF00230123DBB2002BF0D14FF4C043C4F206034FF4C042C4F20602D278D2B242F00202D2B2DA70BA
S32D0000F3E04FF4C043C4F206034FF4C042C4F206029278D2B222F02002D2B29A704FF4C043C4F206034FF4C0425D
S32D0000F408C4F206029278D2B222F01002D2B29A704FF4C043C4F206031B79FB72FFF7F0FEFB7A184607F110070C
S32D0000F430BD4680BD80B582B000AF02460B46FA71BB7140F22963C1F6FF731B7818464FF00001FFF78DFE4FF44C
S32D0000F458C043C4F20603DB78DBB203F00203002B14BF00230123DBB2002BF0D14FF4C043C4F206034FF4C042E4
S32D0000F480C4F20602D278D2B242F00202D2B2DA704FF4C043C4F20603FA791A714FF4C043C4F20603DB78DBB2E6
S32D0000F4A803F00203002B14BF00230123DBB2002BF0D14FF4C043C4F206034FF4C042C4F20602D278D2B242F078
S32D0000F4D00202D2B2DA704FF4C043C4F20603BA791A714FF4C043C4F20603DB78DBB203F00203002B14BF00237B
S32D0000F4F80123DBB2002BF0D14FF4C043C4F206034FF4C042C4F20602D278D2B242F00202D2B2DA704FF4C04329
S32D0000F520C4F206034FF4C042C4F206029278D2B222F02002D2B29A704FF4C043C4F206034FF4C042C4F20602A3
S32D0000F5489278D2B222F01002D2B29A70FFF758FE07F10807BD4680BD80B582B000AF0346FB71FB79184600F035
S32D0000F57043F807F10807BD4680BD00BF80B582B000AF02460B46FA71BB7100F011F8FB794FEA4303DBB218460F
S32D0000F598FFF7E2FFBB791846FFF7DEFF00F016F807F10807BD4680BD80B400AF4FF24003C4F20F034FF2400212
S32D0000F5C0C4F20F02926842F480129A60BD4680BC704700BF80B400AF4FF24003C4F20F034FF24002C4F20F026C
S32D0000F5E8526842F480125A60BD4680BC704700BF80B485B000AF0346FB714FF00003BB7303E0FB7B03F1010376
S32D0000F610FB734FF44043C4F20A03DB6A4FF00003002BF2D14FF44043C4F20A034FF44042C4F20A02D26A42F0E2
S32D0000F6380042DA624FF44043C4F20A03FA795A6300BF4FF44043C4F20A03DB6A03F40033002B14BF0023012371
S32D0000F660DBB2002BF1D14FF44043C4F20A039B6BBB73BB7B184607F11407BD4680BC704780B582B000AF4FF44F
S32D0000F688E043C4F204034FF4E042C4F2040202F5805202F13002126842F4805203F5805303F130031A604FF434
S32D0000F6B02043C4F204034FF480721A654FF24003C4F20F034FF24002C4F20F02526942F480125A61FFF77EFF11
S32D0000F6D84FF42043C4F204034FF400725A654FF42043C4F204034FF400729A654FF42043C4F204034FF40072FE
S32D0000F700DA654FF44043C4F20A034FF44062C8F200021A604FF44043C4F20A034FF00502C3F60062DA604FF095
S32D0000F72800037B6007E04FF0FF00FFF715FF7B6803F101037B607B68092BCCBF00230123DBB2002BEFD104A1EA
S32D0000F750D1E9000102F048F807F10807BD4680BD9A9999999999B93F90B486B000AFF860B9607A60FA684FF4AF
S32D0000F7782043C4F206039A4214D14FF4E043C4F204034FF4E042C4F2040202F5805202F13402126842F48062B8
S32D0000F7A003F5805303F134031A6083E0FA684FF43043C4F206039A4214D14FF4E043C4F204034FF4E042C4F292
S32D0000F7C8040202F5805202F13402126842F4006203F5805303F134031A6067E0FA684FF44043C4F206039A428F
S32D0000F7F014D14FF4E043C4F204034FF4E042C4F2040202F5805202F13402126842F4805203F5805303F1340358
S32D0000F8181A604BE0FA684FF45043C4F206039A4214D14FF4E043C4F204034FF4E042C4F2040202F5805202F165
S32D0000F8403402126842F4005203F5805303F134031A602FE0FA684FF42043C4F20E039A4214D14FF4E043C4F237
S32D0000F86804034FF4E042C4F2040202F5805202F12802126842F4806203F5805303F128031A6013E04FF4E04315
S32D0000F890C4F204034FF4E042C4F2040202F5805202F12802126842F4006203F5805303F128031A60FB68DB785A
S32D0000F8B8DBB223F00C03DAB2FB68DA70FB684FF000029A70BB684FF47A7202FB03F27B684FEA031392FBF3F3A3
S32D0000F8E09CB2FB681B78DBB223F01F03FB75234603F4F8534FEA2323DBB203F01F03DAB2FB7D1343DAB2FB686F
S32D0000F9081A70E2B2FB685A70BB684FF4FA4202FB03F27B684FEA031392FBF3F39AB2234619464FEAC121CB1A39
S32D0000F9304FEA43139BB2D3189CB2FB689B7ADBB223F01F03FB75E3B203F01F03DAB2FB7D1343DAB2FB689A72EB
S32D0000F958FB68DB78DBB243F00C03DAB2FB68DA7007F11807BD4690BC704700BF80B483B000AF786000BF7B6857
S32D0000F9801B79DBB203F02003002B14BF00230123DBB2002BF3D17B68DB79DBB2184607F10C07BD4680BC70473E
S32D0000F9A880B483B000AF78600B46FB7000BF7B681B79DBB2DBB26FEA0303DBB24FEAD313DBB2002BF3D17B68CD
S32D0000F9D0FA78DA7107F10C07BD4680BC704700BF80B487B000AFF860B9607A60FB687B6107E0BB68DAB27B696E
S32D0000F9F81A707B6903F101037B617B68002B0CBF00230123DBB27A6802F1FF327A60002BEBD107F11C07BD460D
S32D0000FA2080BC704780B584B000AF786039607B681B6BFB60FA683B689A4264D07B681B79002B43D07B685A78F9
S32D0000FA487B6803F1340310461946FA684FF0010301F0ACFB0346002B0CBF00230123DBB2002B02D04FF001033D
S32D0000FA704BE07B684FF000021A717B685A6A7B681B6AD218FB689A4220D97B68DB78FB7214E07B681B6AFA68FC
S32D0000FA98D318FB607B685A787B6803F1340310461946FA684FF0010301F080FBFB7A03F1FF33FB72FB7A012BC8
S32D0000FAC094BF00230123DBB2002BE2D13B68002B19D07B685A787B6803F13403104619463A684FF0010301F00E
S32D0000FAE857FA0346002B0CBF00230123DBB2002B02D04FF0010304E07B683A681A634FF00003184607F11007B7
S32D0000FB10BD4680BD80B584B000AF786078684FF00001FFF77FFF0346FB73FB7B002B40F0AE807B681B78032BA9
S32D0000FB3840F095807B685B79002B00F090807B684FF000021A637B6803F1340318464FF000014FF40072FFF780
S32D0000FB603FFF7B684FF0550283F832227B684FF0AA0283F833227B684FF0520283F834207B684FF0520283F81D
S32D0000FB8835207B684FF0610283F836207B684FF0410283F837207B684FF0720283F818227B684FF0720283F811
S32D0000FBB019227B684FF0410283F81A227B684FF0610283F81B227B681B69DAB27B6883F81C227B681B699BB250
S32D0000FBD84FEA2323DAB27B6883F81D227B681B694FEA1343DAB27B6883F81E227B681B694FEA1363DAB27B68B2
S32D0000FC0083F81F227B68DB68DAB27B6883F820227B68DB689BB24FEA2323DAB27B6883F821227B68DB684FEA4A
S32D0000FC281343DAB27B6883F822227B68DB684FEA1363DAB27B6883F823227B6859787B6803F134027B685B69BE
S32D0000FC50084611461A464FF0010301F0ABFA7B684FF000025A717B685B7818464FF000014FF0000201F084FBB4
S32D0000FC780346002B0CBF00230123DBB2002B02D04FF00103FB73FB7B184607F11007BD4680BD00BF80B582B054
S32D0000FCA000AF78600B467B807B68002B08D07B681B78002B04D07B68DB887A889A4202D04FF009030FE07B68F5
S32D0000FCC85B78184601F0ECFB034603F00103DBB2002B02D04FF0030301E04FF00003184607F10807BD4680BD2E
S32D0000FCF080B586B000AF78607B681A687B689B8810461946FFF7CAFF0346FB75FB7D002B40F0C8807B689B794A
S32D0000FD1803F02003002B00F0C1807B689B7903F04003002B20D07B681B6859787B6803F128027B689B69084696
S32D0000FD4011461A464FF0010301F034FA0346002B0CBF00230123DBB2002B02D04FF00103A1E07B689B7923F09E
S32D0000FD684003DAB27B689A717B681A687B68DB6910461946FFF752FE0346FB75FB7D002B40F08C807B681B6A29
S32D0000FD903B613B6903F10B033A6902F10B02127842F02002D2B21A703B6903F11C037A68D268D2B21A703B69EF
S32D0000FDB803F11D037A68D26892B24FEA2222D2B21A703B6903F11E037A68D2684FEA1242D2B21A703B6903F116
S32D0000FDE01F037A68D2684FEA1262D2B21A703B6903F11A037A681269D2B21A703B6903F11B037A68126992B285
S32D0000FE084FEA2222D2B21A703B6903F114037A6812694FEA1242D2B21A703B6903F115037A6812694FEA124200
S32D0000FE3092B24FEA2222D2B21A704FF00003FB603B6903F11603FA68D2B21A703B6903F11703FA6892B24FEA86
S32D0000FE582222D2B21A703B6903F11803FA684FEA1242D2B21A703B6903F11903FA684FEA1262D2B21A707B68C6
S32D0000FE809B7923F02003DAB27B689A717B681B684FF001021A717B681B681846FFF73AFE0346FB75FB7D1846DC
S32D0000FEA807F11807BD4680BD80B584B000AF78607868FFF719FF0346FB73FB7B002B03D17B684FF000021A602D
S32D0000FED0FB7B184607F11007BD4680BD80B588B000AF786039604FF080033B614FF00F03FB604FF0FF337B61FD
S32D0000FEF84FF00203FB612AE04FF00103BB611AE0FB69BA6902FB03F33A6802FB03F27B68D31ABB60BB68002B92
S32D0000FF2009DBBA687B699A4205D2BB687B61FB693B61BB69FB60BB6903F10103BB61BB69102B8CBF002301236F
S32D0000FF48DBB2002BDCD1FB694FEA4303FB61FB69B3F5807F8CBF00230123DBB2002BCBD14FF48053C4F20B031C
S32D0000FF704FF48052C4F20B02D26A22F00802DA624FF48053C4F20B03DB6A1A464FF00F03CFF6F0731340BB6190
S32D0000FF984FF48053C4F20B033A694FEA52024FEA02224FEA02424FEA1242F96801F1FF314FEA0111C9B211432D
S32D0000FFC0BA690A4342F46022DA6203E04FF00A0001F0EEFB4FF48053C4F20B035B6A03F00803002B14BF0023EB
S32D0000FFE80123DBB2002BEDD14FF48053C4F20B034FF48052C4F20B02D26A42F00802DA624FF48053C4F20B0311
S32D000100104FF48052C4F20B02126B42F480121A6307F12007BD4680BD80B582B000AF786039607B684FF000021D
S32D000100381A604FF48053C4F20B034FF40042C0F20012DA624FF48053C4F20B03DB6A03F08073002B0CBF0023A2
S32D000100600123DBB2002BF1D14FF48053C4F20B034FF00002C3F8C0204FF48053C4F20B034FF481325A604FF450
S32D000100888053C4F20B034FF028029A624FF48053C4F20B034FF001125A643B689B6818464CF66041C0F20501C4
S32D000100B0FFF714FF4FF48053C4F20B035B6A03F00303002B0CBF00230123DBB2002BF1D14FF45043C4F2040336
S32D000100D840F243421A604FF45043C4F2040340F243425A604FF45043C4F204034FF488629A604FF45043C4F27E
S32D00010100040340F24342DA604FF45043C4F2040340F243421A614FF45043C4F2040340F243425A614FF4E043A8
S32D00010128C4F204034FF4E042C4F2040202F5805202F13002126842F4003203F5805303F130031A604FF4805378
S32D00010150C4F20B034FF6FF721A634FF48053C4F20B034FF0B302C0F27F025A634FF48053C4F20B034FF48052DC
S32D00010178C4F20B02D26A42F00062DA624FF48053C4F20B03DB6A03F00063002B0CBF00230123DBB2002BF1D15D
S32D000101A04FF48053C4F20B035B6A03F48033002B0CBF00230123DBB2002B03D07B684FF001021A604FF480536A
S32D000101C8C4F20B034FF48052C4F20B02126B42F080021A634FF00003184607F10807BD4680BD00BF80B400AF35
S32D000101F04FF48053C4F20B035B6A1A4640F207331340002B0CBF00230123DBB21846BD4680BC704780B485B09B
S32D0001021800AF78604FF48053C4F20B031B6B1A467B681340FB60FB68002B14BF00230123DBB2002BEED1FB685D
S32D00010240184607F11407BD4680BC704780B584B000AF78607B681B7803F03F0247F22473C0F2010353F822306B
S32D00010268FB60FB68002B06D17B681B78002B02D04FF0010330E14FF48053C4F20B034FF48052C4F20B02126BB1
S32D0001029042F080021A634FF48053C4F20B035B6A03F00103DBB2002BF5D14FF48053C4F20B037A6852689A608A
S32D000102B8FB6823F44003FB607B685B784FEA835303F44003FA681343FB607B685B78022B03D1FB6843F4001389
S32D000102E0FB607B685B78042B16D1FB6803F44033B3F5003F08D1FB6823F44033FB60FB6843F44033FB6007E0A4
S32D00010308FB6823F44033FB60FB6843F40033FB604FF48053C4F20B034FF48052C4F20B0252684FEA02424FEA34
S32D0001033012425A607B68DB68002B32D0FB6803F44033B3F5403F03D0FB6843F40013FB607B681B7A002B03D0F8
S32D00010358FB6843F01003FB607B68DB68012B03D9FB6843F02003FB607B68DB68B3F1FF3F13D04FF48053C4F279
S32D000103800B034FF48052C4F20B02526811467A68D2684FEA02420A435A60FB6843F00203FB604FF48053C4F2F5
S32D000103A80B034FF000021A604FF48053C4F20B03FA68DA604FF00100C0F20E00FFF726FF0346012B0CBF002369
S32D000103D00123DBB2002B10D04FF48053C4F20B034FF48052C4F20B02126B42F4702242F001021A634FF0010356
S32D000103F872E04FF48053C4F20B031B6B03F08003002B0CBF00230123DBB2002B0ED04FF48053C4F20B034FF4BE
S32D000104208052C4F20B02126B42F001121A634FF0010355E04FF48053C4F20B031B6B03F48033002B0CBF00233E
S32D000104480123DBB2002B0ED04FF48053C4F20B034FF48052C4F20B02126B42F001121A634FF0FF3338E0FB68EE
S32D0001047003F44033002B25D04FF48053C4F20B031B691A467B681A61FB6803F44033B3F5803F17D14FF4805385
S32D00010498C4F20B035B691A467B685A614FF48053C4F20B039B691A467B689A614FF48053C4F20B03DB691A4615
S32D000104C07B68DA614FF48053C4F20B034FF48052C4F20B02126B42F001021A634FF00003184607F11007BD465C
S32D000104E880BD00BF80B592B000AF786039604FF00003FB633B68BB6340F24063C1F6FF737B637B6B002B03D130
S32D0001051040F6012300F0A0BC40F64403C1F6FF733B633B6B002B03D140F60B2300F094BC3B6B1B68FB62FB6A9E
S32D00010538002B03D140F60B2300F08ABC7B6841F20432934200F0388241F2043293421BD841F20132934238D0BC
S32D0001056041F20132934207D8032B00F03D84092B00F0298400F066BC41F20232934200F0128241F20332934293
S32D0001058800F0BE8300F05ABC41F20732934200F04B8341F2073293420BD841F20532934200F0348241F206329A
S32D000105B0934200F0108300F045BC41F20832934200F0B68241F20932934200F0C48200F039BC786B47F2187166
S32D000105D8C0F20101FFF724FD0346FB63FB6B002B40F030844FF0000387F847304FF0000387F82B304FF0000377
S32D0001060087F82A304FF0000387F829304FF0000387F846304FF0000387F828304FF000033B724FF000037B726A
S32D000106284FF00003FB604FF000033B744FF000037B6107F108031846FFF704FE0346002B0CBF00230123DBB28B
S32D00010650002B03D04FF00103FB63FCE340F24C4001F0A6F84FF008033B724FF000037B724FF4D573FB604FF065
S32D0001067800033B744FF000037B6107F108031846FFF7E0FD03463B643B6C002B0BD1BA69FB689A4203D04FF045
S32D000106A00103FB63D7E34FF0010387F846304FF0010387F8283097F82830002B00F0C6804FF037033B724FF010
S32D000106C800037B724FF00003FB604FF000033B744FF000037B6107F108031846FFF7B2FD03463B643B6C002BA7
S32D000106F003D04FF00103FB63ADE34FF069033B724FF000037B724FF00003FB604FF000033B744FF000037B61A4
S32D0001071807F108031846FFF795FD0346002B0CBF00230123DBB2002B03D04FF00103FB638DE3BB6903F4401339
S32D00010740002B00F083804FF000033B644FF00A0001F02EF83B6C03F101033B644FF037033B724FF000037B7298
S32D000107684FF00003FB604FF000033B744FF000037B6107F108031846FFF764FD0346002B0CBF00230123DBB2EB
S32D00010790002B03D04FF00103FB6336E04FF069033B724FF000037B7297F84630002B05D04FF00003C4F23003CE
S32D000107B8FB6002E04FF44013FB604FF000033B744FF000037B6107F108031846FFF73AFD0346002B0CBF0023E5
S32D000107E00123DBB2002B03D04FF00103FB630CE0BB69002B05DB3B6C632B02D84FF0010301E04FF00003002BDF
S32D00010808A0D1FB6B002B40F01F833B6C632B04D94FF0000387F8463014E04FF0010387F8473097F84630002B47
S32D000108300CD04FF0000387F84630BB6903F08043002B03D04FF0010387F8463097F82A30002B03D07B6B4FF06A
S32D0001085807021A6097F82930002B03D07B6B4FF008021A6097F82B30002B03D07B6B4FF004021A6097F84730CC
S32D00010880002B0BD07B6B4FF002021A6097F84630002B03D07B6B4FF003021A6097F82B30002B0FD097F84730FF
S32D000108A8002B0BD07B6B4FF005021A6097F84630002B03D07B6B4FF006021A604FF45043C4F204034FF00002F7
S32D000108D01A604FF45043C4F204034FF000025A604FF45043C4F204034FF000029A604FF45043C4F204034FF051
S32D000108F80002DA604FF45043C4F204034FF000021A614FF45043C4F204034FF000025A61FB6A9A68FB6A5B6828
S32D0001092010461946FFF7DAFA4FF45043C4F2040340F243421A604FF45043C4F2040340F243425A604FF450438B
S32D00010948C4F204034FF488629A604FF45043C4F2040340F24342DA604FF45043C4F2040340F243421A614FF410
S32D000109705043C4F2040340F243425A614FF4E043C4F204034FF4E042C4F2040202F5805202F13002126842F4B4
S32D00010998003203F5805303F130031A6057E2B86BFFF750FC03463B643B6C002B00F04E824FF00203FB6349E2AD
S32D000109C0BB6B002B03D14FF00C03FB6343E24FF48053C4F20B03DB6A03F47F434FEA13234FEA43033B644FF46A
S32D000109E88053C4F20B03DB6A03F0F0034FEA131303F101023B6C02FB03F33B64FB6A9A683B6CB2FBF3F2BB6BC9
S32D00010A101A6020E2BB6B002B03D14FF00C03FB6319E2BB6B1B68002B03D14FF00C03FB6311E2FFF7DBFB034613
S32D00010A38002B14BF00230123DBB2002B70D04FF45043C4F204034FF000021A604FF45043C4F204034FF0000230
S32D00010A605A604FF45043C4F204034FF000029A604FF45043C4F204034FF00002DA604FF45043C4F204034FF0FF
S32D00010A8800021A614FF45043C4F204034FF000025A61FB6A9A68BB6B1B6810461946FFF719FA4FF45043C4F2D9
S32D00010AB0040340F243421A604FF45043C4F2040340F243425A604FF45043C4F204034FF488629A604FF450434B
S32D00010AD8C4F2040340F24342DA604FF45043C4F2040340F243421A614FF45043C4F2040340F243425A614FF434
S32D00010B00E043C4F204034FF4E042C4F2040202F5805202F13002126842F4003203F5805303F130031A6096E112
S32D00010B2840F60A23FB6392E1BB6B002B03D14FF00C03FB638BE14FF48053C4F20B035B684FEAC3434FEAD34302
S32D00010B50BA6B13607FE1BB6B002B03D14FF00C03FB6378E1FFF742FB0346002B14BF00230123DBB2002B2AD0E1
S32D00010B78BB6B1A6840F6FF739A4203D94FF00C03FB6364E14FF48053C4F20B034FF48052C4F20B02526822F4D3
S32D00010BA0FE5222F03F025A604FF48053C4F20B034FF48052C4F20B0252681146BA6B12684FEAC2424FEAD242DD
S32D00010BC80A435A6043E140F60A23FB633FE1BB6B002B03D14FF00C03FB6338E14FF48053C4F20B039B6A03F036
S32D00010BF006034FEA53033B643B6C002B04D1BB6B4FF000021A6026E13B6C012B04D1BB6B4FF001021A601EE187
S32D00010C183B6C102B04D1BB6B4FF002021A6016E14FF00503FB6312E1BB6B002B03D14FF00C03FB630BE1FFF7D1
S32D00010C40D5FA0346002B14BF00230123DBB2002B56D0BB6B1B68002B16D14FF48053C4F20B034FF48052C4F2EA
S32D00010C680B02926A22F006029A624FF48053C4F20B034FF48052C4F20B02926A9A62E6E0BB6B1B68012B18D110
S32D00010C904FF48053C4F20B034FF48052C4F20B02926A22F006029A624FF48053C4F20B034FF48052C4F20B02BF
S32D00010CB8926A42F002029A62C9E0BB6B1B68022B16D14FF48053C4F20B034FF48052C4F20B02926A22F00602B1
S32D00010CE09A624FF48053C4F20B034FF48052C4F20B02926A9A62AEE04FF00503FB63AAE040F60A23FB63A6E03B
S32D00010D08BB6B002B03D14FF00C03FB639FE04FF48053C4F20B034FF48052C4F20B02D26A42F00062DA624FF46B
S32D00010D308053C4F20B03DB6A03F00063002B0CBF00230123DBB2002BF1D14FF48053C4F20B031B6B03F08003D5
S32D00010D58002B0CBF00230123DBB2002B0FD04FF48053C4F20B034FF48052C4F20B02126B42F080021A637B6B52
S32D00010D804FF000021A604FF48053C4F20B035B6A03F48033002B0CBF00230123DBB2002B08D07B6B1B68002BDF
S32D00010DA808D17B6B4FF001021A6003E07B6B4FF000021A607B6B1A68BB6B1A6047E0BB6B4FF01C021A60BB6BCB
S32D00010DD003F104034FF004021A60BB6B03F108034FF41E721A6036E04FF00200FFF712FA4FF48053C4F20B0395
S32D00010DF81B6B03F4E003002B0CBF00230123DBB2002B0ED04FF48053C4F20B034FF48052C4F20B02126B42F434
S32D00010E20E0021A634FF00403FB634FF48053C4F20B034FF48052C4F20B02126B42F032021A6308E040F6092344
S32D00010E48FB6304E000BF02E000BF00E000BFFB6B184607F14807BD4680BD00BF80B489B000AF786039607B68C0
S32D00010E707B6140F24063C1F6FF733B613B69002B02D14FF0000381E03B691B68022B0BD03B691B68032B07D03D
S32D00010E983B691B68072B03D03B691B68082B0DD14FF48053C4F20B035B6A03F00403002B0CBF00230123DBB264
S32D00010EC0002BF1D13B68FB6156E0FB69B3F5007F28BF4FF40073FB60FB6803F103034FEA9303BB613CE04FF4B7
S32D00010EE88053C4F20B031B6B03F4E003002B0CBF00230123DBB2002B10D04FF48053C4F20B034FF48052C4F26A
S32D00010F100B02126B42F4E00242F020021A634FF0000333E04FF48053C4F20B035B6A03F40063002B14BF0023D0
S32D00010F380123DBB2002BF1D14FF48053C4F20B031B6A1A467B691A607B6903F104037B61BB6903F1FF33BB61AE
S32D00010F60BB69002B0CBF00230123DBB2002BBAD1FA69FB68D31AFB61FB69002B0CBF00230123DBB2002BA0D1E5
S32D00010F884FF00103184607F12407BD4680BC704780B58EB000AFB9607A600246FA73BB7340F22C63C1F6FF739E
S32D00010FB07B63FB7B002B02D1BB7B002B02D14FF0040381E040F20043C1F6FF731B78DBB203F00103DBB2002B78
S32D00010FD802D04FF0030373E0BB68002B02D14FF000036DE07B6B1B7B002B03D17B684FEA43237B60BB7B012B96
S32D000110002CD14FF011033B754FF000037B757B68BB614FF001033B77BB7B3B6207F1140341F202301946FFF7FF
S32D0001102861FA0346002B14BF00230123DBB2002B3ED0B8684FF40071FFF710FF0346002B0CBF00230123DBB2FE
S32D00011050002B31D04FF00003BB732DE04FF012033B754FF000037B757B68BB614FF001033B77BB7B3B6207F1D3
S32D00011078140341F202301946FFF734FA0346002B14BF00230123DBB2002B11D0BB7B4FEA4323B8681946FFF7D9
S32D000110A0E1FE0346002B0CBF00230123DBB2002B02D04FF00003BB73BB7B002B02D04FF0010301E04FF0000329
S32D000110C8184607F13807BD4680BD00BF80B487B000AF786039607B68FB603B687B6155E07B69B3F5007F28BFF6
S32D000110F04FF400733B617A693B69D31A7B613B6903F103034FEA93033B613BE04FF48053C4F20B031B6B03F4B4
S32D00011118E003002B0CBF00230123DBB2002B10D04FF48053C4F20B034FF48052C4F20B02126B42F4E00242F077
S32D0001114010021A634FF0FF332EE04FF48053C4F20B035B6A03F48063002B14BF00230123DBB2002BF1D14FF4F7
S32D000111688053C4F20B03FA6812681A62FB6803F10403FB603B6903F1FF333B613B69002B0CBF00230123DBB2DC
S32D00011190002BBBD17B69002B0CBF00230123DBB2002BA1D14FF00103184607F11C07BD4680BC704780B58EB009
S32D000111B800AFB9607A600246FA73BB7340F22C63C1F6FF737B63FB7B002B02D1BB7B002B02D14FF00403CAE023
S32D000111E040F20043C1F6FF731B78DBB203F00103DBB2002B02D04FF00303BCE040F20043C1F6FF731B78DBB202
S32D0001120803F00403002B0CBF00230123DBB2002B02D04FF00203AAE0BB68002B02D14FF00003A4E07B6B1B7BC5
S32D00011230002B03D17B684FEA43237B60BB7B012B2CD14FF018033B754FF000037B757B68BB614FF000033B77A5
S32D00011258BB7B3B6207F1140341F202301946FFF741F90346002B14BF00230123DBB2002B3ED0B8684FF4007169
S32D00011280FFF728FF0346002B0CBF00230123DBB2002B31D04FF00003BB732DE04FF019033B754FF000037B7529
S32D000112A87B68BB614FF000033B77BB7B3B6207F1140341F202301946FFF714F90346002B14BF00230123DBB260
S32D000112D0002B11D0BB7B4FEA4323B8681946FFF7F9FE0346002B0CBF00230123DBB2002B02D04FF00003BB7322
S32D000112F84FF00D033B754FF000037B757B6B1B69BB614FF000033B774FF000033B6207F1140341F2023019466A
S32D00011320FFF7E4F80346002B0CBF00230123DBB2002B02D04FF001031DE07A6A48F20803CFF6D9731340002BC4
S32D0001134802D04FF0010312E07B6A03F4F853B3F5106F0CBF00230123DBB2002BC8D1BB7B002B02D04FF0010348
S32D0001137001E04FF00003184607F13807BD4680BD80B58CB000AF0B463A600246FA71BB7140F22C63C1F6FF7382
S32D00011398BB62FB79002B02D04FF004037AE04FF0010387F82F3040F20043C1F6FF731B78DBB203F00103DBB295
S32D000113C0002B02D04FF0030368E0BB79032B5FD801A252F823F000BFE9130100F31301000514010017140100D2
S32D000113E84FF0000387F82F3052E0BB6A9A683B681A604FF0000387F82F3049E03B684FF400721A804FF00003C3
S32D0001141087F82F3040E04FF009033B724FF000037B72BB6A1B69FB604FF000033B744FF000037B6107F1080372
S32D0001143841F202301946FFF755F80346002B0CBF00230123DBB2002B02D04FF0010321E07B6A03F44003002BE0
S32D0001146011D13B6A4FEA934303F07F0303F101027B6A4FEA132303F0030303F1FF3302FA03F23B681A604FF09B
S32D00011488000387F82F3003E04FF0040387F82F3097F82F30184607F13007BD4680BD00BF80B483B000AF034674
S32D000114B0FB71FB79002B02D04FF0010305E040F20043C1F6FF731B78DBB2184607F10C07BD4680BC704700BF2C
S32D000114D880B483B000AF78604FF4E043C4F204034FF4E042C4F2040202F5805202F13802126842F0010203F516
S32D00011500805303F138031A604FF00003C4F204037A689A604FF00003C4F204034FF005025A604FF00003C4F26E
S32D0001152804034FF00002C4F20402126842F001021A6000BF4FF00003C4F204031B6803F08003002B14BF00238F
S32D000115500123DBB2002BF1D14FF00003C4F204034FF00002C4F20402126822F001021A6007F10C07BD4680BC7F
S32D00011578704700BF80B582B000AF786039607B68012B0AD13A684FF6FF739A4205D140F64C00C1F6FF7000F0BA
S32D000115A00FF807F10807BD4680BD00BF80B500AF4FF001004FF6FF71FFF7E0FF80BD00BF80B483B000AF786077
S32D000115C87B684FF000021A707B68184607F10C07BD4680BC704700BF80B582B000AF78607B681B7883F001036A
S32D000115F0DBB2002B36D04FF4E043C4F2040303F5805303F128034FF400621A604FF45043C4F204034FF440725A
S32D000116181A624FF45043C4F204034FF440725A6240F65003C1F6FF731B684FEAD372D3184FEA63034FF43040F3
S32D00011640C4F20E0019464FF46142FEF78DF84FF0640000F0ADF87B684FF001021A704FF0010301E04FF00003AB
S32D00011668184607F10807BD4680BD00BF80B582B000AF7860F970BA707B704FF43040C4F20E004FF07F01FEF758
S32D000116908BF94FF43040C4F20E004FF00801FEF783F9FB784FF43040C4F20E001946FEF77BF9BB784FF43040DF
S32D000116B8C4F20E001946FEF773F97B784FF43040C4F20E001946FEF76BF94FF43040C4F20E004FF0FF01FEF7B2
S32D000116E063F907F10807BD4680BD00BF80B487B000AFF860B9607A60FA6844F6D353C1F26203A3FB02134FEA4E
S32D000117089312BB68D3187B61FA6844F6D353C1F26203A3FB02134FEA93134FF47A7101FB03F3D31AFB60FB68EC
S32D000117304FEAC33244F6D353C1F26203A3FB02134FEA93127B68D3183B613B694FEAD3337A69D3187B613B69B8
S32D000117584FEA43434FEA53433B614FF45043C4F203031B681A467B699A4211D34FF45043C4F203031B681A46AA
S32D000117807B699A420BD14FF45043C4F203035B681A463B699A4202D24FF0010301E04FF00003002BDDD107F15E
S32D000117A81C07BD4680BC704780B584B000AF78604FF45043C4F203031B68FB604FF45043C4F203035B68BB6029
S32D000117D07B681846F968BA68FFF788FF07F11007BD4680BD0000000080B584B000AFC7E900014FF45043C4F205
S32D000117F803031B68FB604FF45043C4F203035B68BB60D7E900010AA3D3E90023FAF7B4FF02460B46104619462F
S32D00011820FBF770FA03461846F968BA68FFF75EFF07F11007BD4680BD0000000000408F4080B584B000AF4FF407
S32D000118485043C4F203031B68FB604FF45043C4F203035B68BB60F868FAF718FF02460B46C7E90023B868FAF7EF
S32D0001187011FF02460B46104619464FF000024FF0804303F56003FBF7A5F802460B46D7E90001FAF7C3FD02466B
S32D000118980B46C7E90023D7E900231046194607F11007BD4680BD00BF80B483B000AF4FF45043C4F203031B682C
S32D000118C04FF47A7202FB03F37B604FF45043C4F203035B684FF47A7202FB03F34FEAD3337A68D3187B607B68BB
S32D000118E8184607F10C07BD4680BC704780B400AF40F67C03C1F6FF734FF001021A70BD4680BC704780B485B086
S32D0001191000AF78607B68A3F11003002B01DA03F11F034FEA6313FB60FB68012B48D0022B00F08980002B40F049
S32D00011938C9804FF46142CEF200024FF46143CEF20003D3F8803119467B68A3F110004FF01F03C8F20003034022
S32D00011960002B05DA03F1FF3363F01F0303F101034FF0010000FA03F30B43C2F880314FF46142CEF200024FF4E7
S32D000119886143CEF200031B6819467B68A3F110004FF01F03C8F200030340002B05DA03F1FF3363F01F0303F166
S32D000119B001034FF0010000FA03F30B43136085E04FF46142CEF200024FF46143CEF20003D3F8843119467B689A
S32D000119D8A3F110004FF01F03C8F200030340002B05DA03F1FF3363F01F0303F101034FF0010000FA03F30B43C0
S32D00011A00C2F884314FF46142CEF200024FF46143CEF200035B6819467B68A3F110004FF01F03C8F200030340EC
S32D00011A28002B05DA03F1FF3363F01F0303F101034FF0010000FA03F30B43536042E04FF46142CEF200024FF4B4
S32D00011A506143CEF20003D3F8883119467B68A3F110004FF01F03C8F200030340002B05DA03F1FF3363F01F0390
S32D00011A7803F101034FF0010000FA03F30B43C2F888314FF46142CEF200024FF46143CEF200039B6819467B68BF
S32D00011AA0A3F110004FF01F03C8F200030340002B05DA03F1FF3363F01F0303F101034FF0010000FA03F30B43F7
S32D00011AC8936000BF07F11407BD4680BC704700BF80B483B000AF78607B68184607F10C07BD4680BC704700BF86
S32D00011AF080B582B000AF786013460A46FA70BB70FA78BB78786811461A4600F007F87B68184607F10807BD4625
S32D00011B1880BD00BF80B584B000AF786013460A46FA70BB707B68FA781A70BB78FB737B681B781A4647F62403BA
S32D00011B40C0F201039B5C042B00F2F68001A252F823F000BF691B0100DD1B0100511C0100391D0100C51C01004E
S32D00011B684FF41043C4F204037A681278114647F66802C0F2010252F82110FA7B4FEA024202F4702242F48872B7
S32D00011B9042F0030243F821204FF47043C4F20F034FF47042C4F20F02526911467A681278104647F66802C0F2CC
S32D00011BB8010252F8202002F01F024FF0010000FA02F26FEA02020A405A614FF06700FFF799FEADE04FF4204368
S32D00011BE0C4F204037A681278114647F66802C0F2010252F82110FA7B4FEA024202F4702242F4887242F003029E
S32D00011C0843F821204FF24003C4F20F034FF24002C4F20F02526911467A681278104647F66802C0F2010252F821
S32D00011C30202002F01F024FF0010000FA02F26FEA02020A405A614FF06800FFF75FFE73E04FF43043C4F20403E2
S32D00011C587A681278114647F66802C0F2010252F82110FA7B4FEA024202F4702242F4887242F0030243F8212066
S32D00011C804FF28003C4F20F034FF28002C4F20F02526911467A681278104647F66802C0F2010252F8202002F073
S32D00011CA81F024FF0010000FA02F26FEA02020A405A614FF06900FFF725FE39E04FF45043C4F204037A68127883
S32D00011CD0114647F66802C0F2010252F82110FA7B4FEA024202F4702242F4887242F0030243F821204FF4714363
S32D00011CF8C4F20F034FF47142C4F20F02526911467A681278104647F66802C0F2010252F8202002F01F024FF02C
S32D00011D20010000FA02F26FEA02020A405A614FF06B00FFF7EBFD00BF07F11007BD4680BD80B483B000AF7860BF
S32D00011D4840F68803C1F6FF737A6853F8223003F1010140F68803C1F6FF737A6843F8221040F68813C1F6FF73DA
S32D00011D707A689B184FF001021A7007F10C07BD4680BC7047B0B58AB000AF47F27863C0F2010307F104041D4667
S32D00011D980FCD0FC495E80F0084E80F004FF000037B6262E04FF42043C4F20403D3F8A0301A467B6A4FEA830303
S32D00011DC007F12800C31853F8243C4FF0010101FA03F31340002B0CBF00230123DBB2002B43D040F67C03C1F655
S32D00011DE8FF731B78002B1FD0FFF75EFD024640F60813C1F6FF73796A53F82130D31A0A2B94BF00230123DBB2D2
S32D00011E10002B10D0FFF74CFD014640F60813C1F6FF737A6A43F82210786AFFF789FF02E0786AFFF785FF4FF466
S32D00011E382043C4F204034FF42042C4F20402D2F8A02011467A6A4FEA820207F12800821852F8242C4FF00100E4
S32D00011E6000FA02F20A40C3F8A0207B6A03F101037B627B6A072BCCBF00230123DBB2002B94D107F12807BD46B6
S32D00011E88B0BD00BFB0B588B000AF47F29863C0F2010307F104041D460FCD0FC495E8030084E803004FF0000386
S32D00011EB0FB616CE04FF43043C4F20403D3F8A0301A46FB694FEA830307F12000C31853F81C3C4FF0010101FAF8
S32D00011ED803F31340002B0CBF00230123DBB2002B4DD040F67C03C1F6FF731B78002B26D0FFF7DAFC0246FB6976
S32D00011F0003F1080140F60813C1F6FF7353F82130D31A0A2B94BF00230123DBB2002B18D0FB6903F10804FFF7E9
S32D00011F28C3FC024640F60813C1F6FF7343F82420FB6903F108031846FFF7FEFE05E0FB6903F108031846FFF73B
S32D00011F50F7FE4FF43043C4F204034FF43042C4F20402D2F8A0201146FA694FEA820207F12000821852F81C2C44
S32D00011F784FF0010000FA02F20A40C3F8A020FB6903F10103FB61FB69052BCCBF00230123DBB2002B8AD107F11E
S32D00011FA02007BD46B0BD00BFB0B58CB000AF47F2B063C0F201033C461D460FCD0FC40FCD0FC495E8070084E837
S32D00011FC807004FF00003FB626CE04FF41043C4F20403D3F8A0301A46FB6A4FEA830307F13000C31853F8303CCC
S32D00011FF04FF0010101FA03F31340002B0CBF00230123DBB2002B4DD040F67C03C1F6FF731B78002B26D0FFF7A3
S32D000120184BFC0246FB6A03F10E0140F60813C1F6FF7353F82130D31A0A2B94BF00230123DBB2002B18D0FB6ACB
S32D0001204003F10E04FFF734FC024640F60813C1F6FF7343F82420FB6A03F10E031846FFF76FFE05E0FB6A03F19B
S32D000120680E031846FFF768FE4FF41043C4F204034FF41042C4F20402D2F8A0201146FA6A4FEA820207F13000B0
S32D00012090821852F8302C4FF0010000FA02F20A40C3F8A020FB6A03F10103FB62FB6A0A2BCCBF00230123DBB23B
S32D000120B8002B8AD107F13007BD46B0BDB0B586B000AF47F2DC63C0F201033C461D460FCD0FC42B6823604FF073
S32D000120E000037B616CE04FF45043C4F20403D3F8A0301A467B694FEA830307F11800C31853F8183C4FF00101AA
S32D0001210801FA03F31340002B0CBF00230123DBB2002B4DD040F67C03C1F6FF731B78002B26D0FFF7C1FB0246C6
S32D000121307B6903F1190140F60813C1F6FF7353F82130D31A0A2B94BF00230123DBB2002B18D07B6903F1190427
S32D00012158FFF7AAFB024640F60813C1F6FF7343F824207B6903F119031846FFF7E5FD05E07B6903F1190318461B
S32D00012180FFF7DEFD4FF45043C4F204034FF45042C4F20402D2F8A02011467A694FEA820207F11800821852F8C6
S32D000121A8182C4FF0010000FA02F20A40C3F8A0207B6903F101037B617B69042BCCBF00230123DBB2002B8AD121
S32D000121D007F11807BD46B0BD80B483B000AF78607B681B781A4640F68803C1F6FF7353F82230184607F10C07A5
S32D000121F8BD4680BC704700BF80B485B000AF78607B681B781A4640F68813C1F6FF739B5CFB737B681B781A4608
S32D0001222040F68813C1F6FF734FF000019954FB7B184607F11407BD4680BC704780B483B000AF78607B681B7827
S32D000122481A4640F68803C1F6FF734FF0000143F8221007F10C07BD4680BC704780B483B000AF78600B46FB70C5
S32D000122707B68FA781A707B68184607F10C07BD4680BC70470000000080B586B000AF78607B681B781A4647F619
S32D00012298E803C0F2010353F822303B617B681B781A4647F64403C0F201039B5CFB733B69DBB203F01F03DAB2F6
S32D000122C040F65C03C1F6FF731A723B69DBB203F01F03DAB240F65C03C1F6FF735A724FF46143CEF200034FF060
S32D000122E81002C3F88820FB7B002B1ED14FF43040C4F2030040F65C01C1F6FF7100F02CFB4FF43043C4F2030313
S32D000123101B6803F08003002B14BF00230123DBB2002BF1D14FF43043C4F203031B697B611DE04FF43040C4F2AE
S32D000123380B0040F65C01C1F6FF7100F00DFB4FF43043C4F20B031B6803F08003002B14BF00230123DBB2002B49
S32D00012360F1D14FF43043C4F20B031B697B614FF46143CEF200034FF46142CEF20002D2F8882142F01002C3F8EE
S32D0001238888214FF46143CEF200034FF46142CEF20002926842F010029A607B694FEA03434FEA13431846FAF7B2
S32D000123B071F902460B46104619460FA3D3E90023FAF7DEF902460B46104619460CA3D3E90023FAF7FFFA0246DF
S32D000123D80B4610461946FAF7B1FC0346BB60BB68184607F11807BD4680BD00BFAFF30080A4703D0AD7A30A40F6
S32D0001240000000000E0FFEF4080B586B000AF78607B681B781A4647F6E803C0F2010353F822303B617B681B784A
S32D000124281A4647F64403C0F201039B5CFB733B69DBB203F01F03DAB240F66C03C1F6FF731A723B69DBB203F036
S32D000124501F03DAB240F66C03C1F6FF735A72FB7B002B1ED14FF43040C4F2030040F66C01C1F6FF7100F074FAF1
S32D000124784FF43043C4F203031B6803F08003002B14BF00230123DBB2002BF1D14FF43043C4F203031B697B6139
S32D000124A01DE04FF43040C4F20B0040F66C01C1F6FF7100F055FA4FF43043C4F20B031B6803F08003002B14BF22
S32D000124C800230123DBB2002BF1D14FF43043C4F20B031B697B617B69184607F11807BD4680BD00BF98B500AFF6
S32D000124F040F65C03C1F6FF734FF05C021A7040F65C03C1F6FF734FF010025A7040F65C03C1F6FF7341F23422B8
S32D000125185A8040F65C03C1F6FF7345F278629A8040F65C03C1F6FF734FF010029A7140F65C03C1F6FF734FF0BA
S32D000125400702DA7140F65C03C1F6FF734FF4C022DA6040F65C03C1F6FF734FF01F021A7240F65C03C1F6FF7393
S32D000125684FF01F025A724FF43040C4F2030040F65C01C1F6FF7100F0EFF94FF43040C4F20B0040F65C01C1F65C
S32D00012590FF7100F0E5F94FF43040C4F20B0000F039F94FF43040C4F2030000F033F94FF43040C4F20B0040F616
S32D000125B85C01C1F6FF7100F0CFF94FF43040C4F2030040F65C01C1F6FF7100F0C5F940F66C02C1F6FF7240F6E2
S32D000125E05C03C1F6FF7314460FCB84E80F0040F66C03C1F6FF734FF05C021A7040F66C03C1F6FF734FF004028D
S32D00012608DA7198BD80B500AF40F6AC13C1F6FF731B6803F1010240F6AC13C1F6FF731A6000F04CF84FF4E04355
S32D00012630C4F203034FF00102C3F80C2180BD00BF80B500AF4FF4E043C4F203034FF001021A6048F2A060C0F2EB
S32D00012658010000F023F84FF4E043C4F203034FF00302C3F808214FF46143CEF200034FF46142CEF20002D2F8E1
S32D00012680882142F01002C3F888214FF46143CEF200034FF46142CEF20002926842F010029A6080BD80B483B0AC
S32D000126A800AF78604FF4E043C4F203037A68C3F8002107F10C07BD4680BC704780B584B000AF40F6A813C1F6DB
S32D000126D0FF731B68FB6029E0FB685B78FB71FB689B68184600F02EF80346BB71BB79002B19D0FB685B68012BF7
S32D000126F815DDFB689B681B69BB6008E0BB685B6803F10102BB685A60BB681B69BB60BB68002B0CBF00230123F8
S32D00012720DBB2002BEED1FB68DB68FB60FB68002B0CBF00230123DBB2002BCDD107F11007BD4680BD80B584B064
S32D0001274800AF78607868FFF75BFE0346FB607B689B695B78FB72FB7A002B12D17B68DA68FB689A420DDA7B6830
S32D000127709B694FF001025A707B685B6803F101027B685A604FF0010317E0FB7A012B12D17B689A68FB689A420E
S32D000127980DDD7B689B694FF000025A707B685B6803F101027B685A604FF0010301E04FF00003184607F1100729
S32D000127C0BD4680BD80B582B000AF786039607B68012B10D13A684FF6FF739A420BD140F68000C1F6FF70FFF750
S32D000127E877F940F68400C1F6FF70FFF771F907F10807BD4680BD00BF80B500AF4FF001004FF6FF71FFF7DAFF64
S32D0001281080BD00BF80B485B000AF78607B681B6A23F040027B681A627B685B6A23F00B027B685A627B685B6A82
S32D0001283843F007027B685A627B685B6A43F080027B685A627B681B6803F08003002B14BF00230123DBB2002BC1
S32D00012860F4D17B685B6A03F04003002B0CBF00230123DBB2002B02D04FF0010369E04FF00003FB817B68DB6C6B
S32D00012888FB817B689B6C9AB2FB89D318FB817B685B6C9AB2FB89D318FB817B681B6C9AB2FB89D318FB817B681F
S32D000128B0DB6B9AB2FB89D318FB817B689B6B9AB2FB89D318FB81FB894FEA5303FB81FB896FEA43436FEA53437B
S32D000128D8FB81FA897B68DA624FF00003FB817B68DB6EFB817B689B6E9AB2FB89D318FB817B685B6E9AB2FB89AE
S32D00012900D318FB817B681B6E9AB2FB89D318FB817B68DB6D9AB2FB89D318FB817B689B6D9AB2FB89D318FB811A
S32D00012928FB894FEA5303FB81FB896FEA43436FEA5343FB81FA897B681A637B685B6A23F080027B685A624FF025
S32D000129500003184607F11407BD4680BC704700BF80B483B000AF786039603B681B781A467B689A603B685B78BF
S32D000129781A467B68DA603B685B881A467B689A613B689B881A467B68DA613B689B791A467B681A623B68DB793E
S32D000129A01A467B685A623B68DA687B681A653B681B7A1A467B681A603B685B7A1A467B685A6007F10C07BD464A
S32D000129C880BC704780B483B000AF78607B68184607F10C07BD4680BC704700BF80B582B000AF786039607B6894
S32D000129F0012B0AD13A684FF6FF739A4205D140F6B010C1F6FF70FFF7E1FF07F10807BD4680BD00BF80B500AFCA
S32D00012A184FF001004FF6FF71FFF7E0FF80BD00BF80B483B000AF78600B46FB707B68FA781A707B684FF4FA72AE
S32D00012A405A807B6840F6C4129A807B68044A9A607B68184607F10C07BD4680BC704700BF000080BF80B483B0B2
S32D00012A6800AF786039603A6840F2F3139A4204DD3A6840F6C4139A4204DD7B684FF4FA725A8003E03B689AB2DE
S32D00012A907B685A8007F10C07BD4680BC704700BF80B483B000AF786039603A6840F2F3139A4204DD3A6840F6A4
S32D00012AB8C4139A4204DD7B6840F6C4129A8003E03B689AB27B689A8007F10C07BD4680BC704700BF00000000C3
S32D00012AE0F0B585B000AF786039604FF001031C4638684B49FAF722FC0346002B02D14FF000031C46E3B2002B3A
S32D00012B0801D0454B3B604FF001031C4638684349FAF72EFC0346002B02D14FF000031C46E3B2002B01D03D4BB2
S32D00012B303B607B689B6818463968FAF7F5FB0346002B64D17B683A689A607B685E887B689B881A467B685B88F8
